{
  "_format": "hh-sol-artifact-1",
  "contractName": "Transaction",
  "sourceName": "contracts/Transactions.sol",
  "abi": [
    {
      "inputs": [
        {
          "internalType": "address payable",
          "name": "to",
          "type": "address"
        },
        {
          "internalType": "uint256",
          "name": "amount",
          "type": "uint256"
        },
        {
          "internalType": "string",
          "name": "message",
          "type": "string"
        },
        {
          "internalType": "string",
          "name": "keyword",
          "type": "string"
        }
      ],
      "name": "addToBlockchain",
      "outputs": [],
      "stateMutability": "nonpayable",
      "type": "function"
    },
    {
      "inputs": [],
      "name": "getAllTransactions",
      "outputs": [
        {
          "components": [
            {
              "internalType": "address",
              "name": "sender",
              "type": "address"
            },
            {
              "internalType": "address",
              "name": "receiver",
              "type": "address"
            },
            {
              "internalType": "uint256",
              "name": "amount",
              "type": "uint256"
            },
            {
              "internalType": "string",
              "name": "message",
              "type": "string"
            },
            {
              "internalType": "uint256",
              "name": "timestamp",
              "type": "uint256"
            },
            {
              "internalType": "string",
              "name": "keyword",
              "type": "string"
            }
          ],
          "internalType": "struct Transaction.TransferStruct[]",
          "name": "",
          "type": "tuple[]"
        }
      ],
      "stateMutability": "view",
      "type": "function"
    },
    {
      "inputs": [],
      "name": "getTransactionCount",
      "outputs": [
        {
          "internalType": "uint256",
          "name": "",
          "type": "uint256"
        }
      ],
      "stateMutability": "view",
      "type": "function"
    },
    {
      "inputs": [
        {
          "internalType": "uint256",
          "name": "",
          "type": "uint256"
        }
      ],
      "name": "transactions",
      "outputs": [
        {
          "internalType": "address",
          "name": "sender",
          "type": "address"
        },
        {
          "internalType": "address",
          "name": "receiver",
          "type": "address"
        },
        {
          "internalType": "uint256",
          "name": "amount",
          "type": "uint256"
        },
        {
          "internalType": "string",
          "name": "message",
          "type": "string"
        },
        {
          "internalType": "uint256",
          "name": "timestamp",
          "type": "uint256"
        },
        {
          "internalType": "string",
          "name": "keyword",
          "type": "string"
        }
      ],
      "stateMutability": "view",
      "type": "function"
    }
  ],
  "bytecode": "0x608060405234801561001057600080fd5b50610f7f806100206000396000f3fe608060405234801561001057600080fd5b506004361061004c5760003560e01c806327506f53146100515780632e7700f01461006f5780639ace38c21461008d578063cc2d7ead146100c2575b600080fd5b6100596100de565b6040516100669190610875565b60405180910390f35b610077610321565b60405161008491906108a6565b60405180910390f35b6100a760048036038101906100a29190610901565b61032a565b6040516100b996959493929190610987565b60405180910390f35b6100dc60048036038101906100d79190610b69565b6104c6565b005b60606001805480602002602001604051908101604052809291908181526020016000905b8282101561031857838290600052602060002090600602016040518060c00160405290816000820160009054906101000a900473ffffffffffffffffffffffffffffffffffffffff1673ffffffffffffffffffffffffffffffffffffffff1673ffffffffffffffffffffffffffffffffffffffff1681526020016001820160009054906101000a900473ffffffffffffffffffffffffffffffffffffffff1673ffffffffffffffffffffffffffffffffffffffff1673ffffffffffffffffffffffffffffffffffffffff168152602001600282015481526020016003820180546101eb90610c37565b80601f016020809104026020016040519081016040528092919081815260200182805461021790610c37565b80156102645780601f1061023957610100808354040283529160200191610264565b820191906000526020600020905b81548152906001019060200180831161024757829003601f168201915b505050505081526020016004820154815260200160058201805461028790610c37565b80601f01602080910402602001604051908101604052809291908181526020018280546102b390610c37565b80156103005780601f106102d557610100808354040283529160200191610300565b820191906000526020600020905b8154815290600101906020018083116102e357829003601f168201915b50505050508152505081526020019060010190610102565b50505050905090565b60008054905090565b6001818154811061033a57600080fd5b90600052602060002090600602016000915090508060000160009054906101000a900473ffffffffffffffffffffffffffffffffffffffff16908060010160009054906101000a900473ffffffffffffffffffffffffffffffffffffffff16908060020154908060030180546103af90610c37565b80601f01602080910402602001604051908101604052809291908181526020018280546103db90610c37565b80156104285780601f106103fd57610100808354040283529160200191610428565b820191906000526020600020905b81548152906001019060200180831161040b57829003601f168201915b50505050509080600401549080600501805461044390610c37565b80601f016020809104026020016040519081016040528092919081815260200182805461046f90610c37565b80156104bc5780601f10610491576101008083540402835291602001916104bc565b820191906000526020600020905b81548152906001019060200180831161049f57829003601f168201915b5050505050905086565b60016000808282546104d89190610c97565b9250508190555060016040518060c001604052803373ffffffffffffffffffffffffffffffffffffffff1681526020018673ffffffffffffffffffffffffffffffffffffffff16815260200185815260200184815260200142815260200183815250908060018154018082558091505060019003906000526020600020906006020160009091909190915060008201518160000160006101000a81548173ffffffffffffffffffffffffffffffffffffffff021916908373ffffffffffffffffffffffffffffffffffffffff16021790555060208201518160010160006101000a81548173ffffffffffffffffffffffffffffffffffffffff021916908373ffffffffffffffffffffffffffffffffffffffff1602179055506040820151816002015560608201518160030190816106109190610e77565b506080820151816004015560a08201518160050190816106309190610e77565b50505050505050565b600081519050919050565b600082825260208201905092915050565b6000819050602082019050919050565b600073ffffffffffffffffffffffffffffffffffffffff82169050919050565b600061069082610665565b9050919050565b6106a081610685565b82525050565b6000819050919050565b6106b9816106a6565b82525050565b600081519050919050565b600082825260208201905092915050565b60005b838110156106f95780820151818401526020810190506106de565b60008484015250505050565b6000601f19601f8301169050919050565b6000610721826106bf565b61072b81856106ca565b935061073b8185602086016106db565b61074481610705565b840191505092915050565b600060c0830160008301516107676000860182610697565b50602083015161077a6020860182610697565b50604083015161078d60408601826106b0565b50606083015184820360608601526107a58282610716565b91505060808301516107ba60808601826106b0565b5060a083015184820360a08601526107d28282610716565b9150508091505092915050565b60006107eb838361074f565b905092915050565b6000602082019050919050565b600061080b82610639565b6108158185610644565b93508360208202850161082785610655565b8060005b85811015610863578484038952815161084485826107df565b945061084f836107f3565b925060208a0199505060018101905061082b565b50829750879550505050505092915050565b6000602082019050818103600083015261088f8184610800565b905092915050565b6108a0816106a6565b82525050565b60006020820190506108bb6000830184610897565b92915050565b6000604051905090565b600080fd5b600080fd5b6108de816106a6565b81146108e957600080fd5b50565b6000813590506108fb816108d5565b92915050565b600060208284031215610917576109166108cb565b5b6000610925848285016108ec565b91505092915050565b61093781610685565b82525050565b600082825260208201905092915050565b6000610959826106bf565b610963818561093d565b93506109738185602086016106db565b61097c81610705565b840191505092915050565b600060c08201905061099c600083018961092e565b6109a9602083018861092e565b6109b66040830187610897565b81810360608301526109c8818661094e565b90506109d76080830185610897565b81810360a08301526109e9818461094e565b9050979650505050505050565b6000610a0182610665565b9050919050565b610a11816109f6565b8114610a1c57600080fd5b50565b600081359050610a2e81610a08565b92915050565b600080fd5b600080fd5b7f4e487b7100000000000000000000000000000000000000000000000000000000600052604160045260246000fd5b610a7682610705565b810181811067ffffffffffffffff82111715610a9557610a94610a3e565b5b80604052505050565b6000610aa86108c1565b9050610ab48282610a6d565b919050565b600067ffffffffffffffff821115610ad457610ad3610a3e565b5b610add82610705565b9050602081019050919050565b82818337600083830152505050565b6000610b0c610b0784610ab9565b610a9e565b905082815260208101848484011115610b2857610b27610a39565b5b610b33848285610aea565b509392505050565b600082601f830112610b5057610b4f610a34565b5b8135610b60848260208601610af9565b91505092915050565b60008060008060808587031215610b8357610b826108cb565b5b6000610b9187828801610a1f565b9450506020610ba2878288016108ec565b935050604085013567ffffffffffffffff811115610bc357610bc26108d0565b5b610bcf87828801610b3b565b925050606085013567ffffffffffffffff811115610bf057610bef6108d0565b5b610bfc87828801610b3b565b91505092959194509250565b7f4e487b7100000000000000000000000000000000000000000000000000000000600052602260045260246000fd5b60006002820490506001821680610c4f57607f821691505b602082108103610c6257610c61610c08565b5b50919050565b7f4e487b7100000000000000000000000000000000000000000000000000000000600052601160045260246000fd5b6000610ca2826106a6565b9150610cad836106a6565b9250828201905080821115610cc557610cc4610c68565b5b92915050565b60008190508160005260206000209050919050565b60006020601f8301049050919050565b600082821b905092915050565b600060088302610d2d7fffffffffffffffffffffffffffffffffffffffffffffffffffffffffffffffff82610cf0565b610d378683610cf0565b95508019841693508086168417925050509392505050565b6000819050919050565b6000610d74610d6f610d6a846106a6565b610d4f565b6106a6565b9050919050565b6000819050919050565b610d8e83610d59565b610da2610d9a82610d7b565b848454610cfd565b825550505050565b600090565b610db7610daa565b610dc2818484610d85565b505050565b5b81811015610de657610ddb600082610daf565b600181019050610dc8565b5050565b601f821115610e2b57610dfc81610ccb565b610e0584610ce0565b81016020851015610e14578190505b610e28610e2085610ce0565b830182610dc7565b50505b505050565b600082821c905092915050565b6000610e4e60001984600802610e30565b1980831691505092915050565b6000610e678383610e3d565b9150826002028217905092915050565b610e80826106bf565b67ffffffffffffffff811115610e9957610e98610a3e565b5b610ea38254610c37565b610eae828285610dea565b600060209050601f831160018114610ee15760008415610ecf578287015190505b610ed98582610e5b565b865550610f41565b601f198416610eef86610ccb565b60005b82811015610f1757848901518255600182019150602085019450602081019050610ef2565b86831015610f345784890151610f30601f891682610e3d565b8355505b6001600288020188555050505b50505050505056fea2646970667358221220d01aae655d9f4ec1b46097eb463bc6e0f35663a33e888ed1c2d2d9423f17ecfb64736f6c63430008130033",
  "linkReferences": {},
  "deployedLinkReferences": {}
}